:020000040800F2
:1000000040050020C900000815210008511F000804
:1000100000000000000000000000000000000000E0
:100020000000000000000000000000001B2100088C
:100030000000000000000000172100081D2100083A
:10004000DB00000800000000DB000008DB00000807
:1000500019210008DB000008DB000008DB000008B5
:1000600000000000DB000008DB000008DB000008E7
:10007000DB000008DB0000089921000800000000F8
:10008000A92100080000000000000000DB000008BB
:10009000DB000008DB000008DB000008DB000008D4
:1000A000DB000008DB000008DB0000087D290008F9
:1000B000DB0000080348854600F02AFB00480047A3
:1000C0004D3300084005002004488047044800479D
:1000D000FEE7FEE7FEE7FEE7FEE7FEE79721000802
:1000E000B500000830B50B4601460020202201244F
:1000F00009E00D46D5409D4205D31D469540491B5C
:100100002546954040191546521E002DF1DC30BDA4
:10011000F0B51FB40646002082B005464024019188
:1001200000901BE0019922460F46304600F020F86F
:10013000049A059B801A994110D31046194622460D
:1001400000F0CFF8361A8F41019722460120002196
:10015000009F00F0C6F838184D4100902046641EFC
:100160000028DFDC019B00982946324607B0F0BD2D
:1001700010B5202A04DB0846203AD040002110BDEB
:100180000B46D340D0402024A21A91400843194680
:1001900010BDD2B201E00270401C491EFBD2704774
:1001A0000022F6E710B513460A4604461946FFF743
:1001B000F0FF204610BD024670B54A40D30FDB0762
:1001C00040002DD04A002AD0010E140E0002120267
:1001D0000919400A520A8418E50104465443000AEA
:1001E000120A2E045043A4194219200CC543AA1820
:1001F000120C0125AD03521C521912047F3924043C
:1002000000D0521C104301D44000491EC2B20C065B
:10021000C0092018401C4008802A02D003E00020BA
:1002200070BD40084000002900DA0020184370BD6E
:1002300070B502464A40D50F40004A00ED0740081D
:100240005208002814D0002A12D0C40DD30D410248
:100250000120C0055202490A520AE41A091812186C
:100260007D34914201D3641C00E04900002C01DA86
:10027000002070BD0023914201D3891A0343400836
:1002800049000028F7D100290AD0914202D101216A
:10029000C90705E0914201D2012101E00121C943D2
:1002A000E005C018401900F02CF870BD10B5002210
:1002B0009623114600F02DF810BDC20FD207400062
:1002C00040080BD0C10D0723DB01C9184002090506
:1002D000400A1143C20840071143704700200146FD
:1002E000704710B5202A04DB0146203A91400020D7
:1002F00010BD914020239C1A0346E34019439040CF
:1003000010BD002904DA401C490001D1400840001A
:10031000704770B40024050C05D11024000402D1EC
:10032000002921D01124050E01D100020834050F47
:1003300001D10001241D850F01D18000A41C0028DB
:1003400001DB4000641C002908D020252E1B0D462F
:10035000F540A14000D001212943084301061B1BA1
:10036000000ADB1D02D5002070BC7047DB051818A1
:1003700080180029F8DA401C4900F5D170BC40080B
:1003800040007047F0B507460846584087B0C00F98
:10039000049048000E46590040084908BC1A88419C
:1003A00005D2384631461E4617460B4602465800CF
:1003B000400810434CD0300D039040055900400DCB
:1003C000490D0590401A0290402872DA1803012165
:1003D000000B09050843019004980092002805D0FD
:1003E00001995242002088410092019002984021D8
:1003F0000A1A01990098FFF774FF05460C466B46F0
:1004000007CB00F097F9C0197141039A0E0D002334
:10041000D71756401A467A40164344D0049A002A09
:100420002DD0029A012A039A15DC1205C01A9141B7
:1004300001263605001C7141D20F059ED20700939C
:10044000019202962A46234600F094F907B0F0BDC7
:1004500038463146FAE71605224A0F46B218C01A46
:10046000B74101210905001C4F4100187F41114689
:1004700018187941E20F10436D19644113E0E20747
:100480006D0815436408C2071443039A0126120538
:10049000C01A91413605001C7141CE074008304317
:1004A0004908C01851412A46234600F056F9CDE7C5
:1004B000FFE7049801224000C117121A00238B4164
:1004C00004983146C417381AA141EEE730B401242C
:1004D000E407634030BC55E730B40124E4076140D1
:1004E00030BC4FE70000E0FFF0B51FB488B00B99B7
:1004F0000998002448400999C00F4900490809910A
:10050000C0070B990090490049080B910999089878
:10051000A64608431CD00B990A98084318D009989E
:1005200001244000420D4800410D099824050003B4
:10053000000B204309900B980003000B20430B9005
:1005400050181C494018002201901446104605E03E
:10055000002001460DB0F0BD032801DA034600E09B
:1005600003239C46C11A0AAE0AE05F0008ADED5BAA
:100570004F00F75B7D430027AA187C41491C5B1E96
:100580006145F2DD410004AB5A522104120C0A43CA
:10059000240C401C0828DFDB01980290009970466B
:1005A00001910090059B049A0799069800F0E2F8E3
:1005B000D0E700000DFCFFFFF0B50C465C4085B0B5
:1005C000E40FE40703944C000026640859009446A5
:1005D000490802460296224321D062460A431ED0B1
:1005E0006200570D4A000E032303550D01240246F5
:1005F0002C492405781B1B0B360B4018234326433C
:10060000614600901C46501AB44103D30098401C28
:10061000009002E0921800985B41002803DA002065
:10062000014605B0F0BD00200121090507468646B8
:1006300011E064461D46141BB54106D36546521BA6
:10064000B341744607430C43A646CD07400849080A
:10065000284392185B4105460D43EAD110461843E2
:1006600013D06046194650407140084306D060469A
:10067000101AB34106D20122002306E00022012312
:10068000DB0702E00122D2435310009874460105B3
:10069000381C6141029C039D0019694100F05DF81E
:1006A000BFE70000FD0300004A0009030123090B16
:1006B0001B0519430A4B10B5520D9A4202DA00206D
:1006C000014610BD064B34339A4203DC9A1AFFF7F9
:1006D0004FFD10BD034BD218FFF703FE10BD000005
:1006E000FF030000CDFBFFFF10B5002904DB012450
:1006F000E40740428C412146002B04DB1C460123C9
:10070000DB075242A341994200D1904210BD000044
:10071000064C0125064E05E0E36807CC2B430C3C54
:1007200098471034B442F7D3FFF7C8FC743400087C
:100730009434000810B5202A06DBCB170846203A6F
:100740001041C1170B4306E00B461341D040202453
:10075000A21A91400843194610BD10B5002B08DAC3
:100760000024401C614192185B411A4301D14008AA
:10077000400010BDF0B51FB482B005460C0003D098
:10078000084602F013F902E002F010F920300246A8
:10079000009021462846FFF7A4FD049B059A0446D5
:1007A0000F4618431143084314D0184610431BD07A
:1007B000009840210A1A18460599FFF7D9FC05460A
:1007C0000E46009A05990498FFF78BFD084305D063
:1007D000012004E02046394607B0F0BD0020C117D3
:1007E00005430E432C43374300990E986305401A86
:1007F0007905E40A00220C43FD0A0A3002D50020E4
:100800000146E9E70105101969410C9C0D9D00198D
:100810006941FFF7A2FFDFE730B5014620314B7891
:100820000022022B04D0042383630A70012030BD10
:1008300003681C680E25AC431C6003681C686408D0
:1008400064001C600123056C1C46C06BAC40446016
:100850004B700A70002030BD70B500240146203175
:100860004A78022A03D004218163012416E0026839
:1008700013680E25AB431360026813685B085B00C6
:1008800013600122056C1346AB40C56B6B604A7068
:1008900000220A70416B002900D08847204670BDB5
:1008A00070B5044600F0E0F80546601C02D004482C
:1008B0000078241800F0D8F8401BA042FAD370BD8D
:1008C00018000020F8B5002303240125BAE02E46C5
:1008D0009E40B44632407CD00E79B607B60F012E4A
:1008E00001D0022E17D186682746B6465E00B74073
:1008F00000967646BE43B646CF68009EB740764621
:100900003743876046686746BE430F79FF06FF0F8F
:100910009F40374347600E79F643B6070ED0C6684E
:100920002746B4465E00B646B7406646BE43B44668
:100930008F687646B74066463743C7600E79B6077C
:10094000B60F022E14D1DE08B60036180096366AAD
:100950005F07B446FE0E0F27B646B7406646BE4355
:10096000B4460F697646B74066463743009E376205
:1009700006682746B4465E00B646B7406646BE43A4
:100980000F79B446BF07BF0F7646B7406646374378
:1009900007604E68B603B60F53D02D4FBE692E4385
:1009A000BE61BE699F08F607F60F2A4EBF00BE194A
:1009B0000096B6680F27B4469E07360FB646B74076
:1009C0006646BE430927FF06B446B84202D1002757
:1009D00010E036E0204FB84201D101270AE01F4F56
:1009E000B84201D1022705E01D4FB84201D10327CB
:1009F00000E005277646B74066463743009EB7605D
:100A0000184E36684F689643FF0300D51643154FBE
:100A10003E607E684F689643BF0300D51643114F72
:100A20007E60BE684F689643FF0200D516430D4FA7
:100A3000BE60FE684F689643BF0200D51643094A60
:100A4000D6605B1C0A681646DE4000D03FE7F8BD62
:100A50000010024000000140000400480008004867
:100A6000000C004800040140014880687047000005
:100A70001800002002488168027889188160704758
:100A80001800002010B506480168102211430160CB
:100A9000032000F007F800F027F8002010BD000048
:100AA0000020024070B504460D4D7D202978C0001D
:100AB000FFF718FB01460B480068FFF713FB00F037
:100AC0004BFB002809D1042C07D200222146401EEE
:100AD00000F032F800206C6070BD012070BD000095
:100AE000180000202400002008B50C48816901226C
:100AF00011438161816911400091C26901040A4377
:100B0000C261C0690022084000901146042000F034
:100B100013F8042000F004F808BD000000100240A3
:100B2000002805DBC106C90E012088400149086084
:100B30007047000000E100E010B501F073FF10BD48
:100B4000F8B505460068354CC00352D5E06900266B
:100B5000C00007D4E16920040143E161E16901407B
:100B6000012600912E480168C90510D4016882153C
:100B700011430160FFF778FF074604E0FFF774FFB9
:100B8000C01B642824D826480068C005F6D5206A12
:100B900003273F02384020D06968394081421CD089
:100BA000206A226AB843012109040A432262226AA8
:100BB0008A4322622062C0070FD0FFF755FF0090E2
:100BC00008E0FFF751FF0099411A1648814201D908
:100BD0000320F8BD206A8007F3D5206A6968B8430E
:100BE00008432062002E04D0E16901200007814300
:100BF000E1612878C00705D0206BA96880088000D3
:100C0000084320632878800605D5206B102188438F
:100C1000E968084320630020F8BD0000001002408E
:100C20000070004088130000F8B50F46060059D048
:100C30003A4D2868C007C00FB84209D2286840085A
:100C40004000384328602868C007C00FB84249D127
:100C50003068334C81070CD5400704D56068072104
:100C60000902084360606068F0218843B168084366
:100C700060603078C00726D0706801280ED02168E7
:100C800002280ED0890700292CDA616889088900BA
:100C900001436160FFF7E8FE00900DE021688903E1
:100CA000F1E78901EFE7FFF7DFFE0099411A1D48E0
:100CB000814201D90320F8BD60680C2108407168A9
:100CC00089008842EFD12868C007C00FB8420BD90D
:100CD000286840084000384328602868C007C00FD3
:100CE000B84201D00120F8BD3078400706D56068D1
:100CF000072109028843F1680843606000F028F882
:100D00006168094A0906090F515CC8400749086033
:100D10000320FFF7C7FE0020F8BD000000200240BE
:100D200000100240881300005C34000824000020FA
:100D30000448054900684968044A4905490F515C5F
:100D4000C840704724000020001002406C340008A6
:100D500010B514A30FCB88B06C460FC415A30FCBEE
:100D60000FC4184A51680C200B4603401648042B48
:100D700016D0082B14D18B021B0F6C46E45CD26A90
:100D800004AB1207120F9A5CC90305D5002319465C
:100D9000FFF7BEF9214601E020460C4901F01DFE97
:100DA00008B010BD02030405060708090A0B0C0D64
:100DB0000E0F10100102030405060708090A0B0CA8
:100DC0000D0E0F100010024000127A0000093D00C5
:100DD000FEB5040070D02078DC4DC0074AD06868AA
:100DE0000007800F012807D068680007800F0228DD
:100DF00009D16868C00306D5286880033AD56068C1
:100E00000028E7D036E06168012914D00120800471
:100E1000002901D0052914D02A68012109048A4338
:100E20002A602968814329606068002816D0FFF78E
:100E30001BFE06460EE028680121090408432860CD
:100E4000F2E7296801432960F5E7FFF70DFE801BF3
:100E500064286ED828688003F7D50BE0FFF704FEFE
:100E6000064604E0FFF700FE801B6428F1D82868DE
:100E70008003F7D420780126800700283CDA6868D0
:100E80000007800F07D068680007800F022809D18B
:100E90006868C00306D42868800716D5E068012872
:100EA0000AD112E0E0680028286816D03043286094
:100EB000FFF7DAFD074605E043E1FFF7D5FDC01B6C
:100EC0000228C6D828688007F7D52868F821884303
:100ED0002169C900084328600EE0400840002860EE
:100EE000FFF7C2FD074604E0FFF7BEFDC01B022866
:100EF000AFD828688007F7D42078000722D5E069AA
:100F00000028686A0ED030436862FFF7ADFD0746DF
:100F100004E0FFF7A9FDC01B02289AD8686A800781
:100F2000F7D50FE0400840006862FFF79DFD0746D7
:100F300005E09DE0FFF798FDC01B022889D8686A8C
:100F40008007F7D4207804274007002860DA0020C3
:100F50000190E869C00008D4E969B8060143E96175
:100F6000E969014001200091019079480168C905B3
:100F700011D40168821511430160FFF775FD0090DF
:100F800005E0FFF771FD0099401A642870D8704899
:100F90000068C005F5D5A06801280AD0002801D056
:100FA000052810D0286A400840002862286AB84303
:100FB00001E0286A30432862A068002812D0FFF7B9
:100FC00053FD00900AE0286A38432862F1E7FFF7F2
:100FD0004BFD0099411A5F48814249D8286A800731
:100FE000F5D50DE0FFF740FD009006E0FFF73CFD72
:100FF0000099411A574881423AD8286A8007F5D4A7
:101000000198002804D0E969012000078143E961C3
:101010002078C00635D5606901280CD0401D686B6A
:1010200023D038436863686B400840006863FFF76B
:101030001BFD064622E0686B38436863686B3043EB
:101040006863FFF711FD064604E0FFF70DFD801B06
:1010500002285BD8686B8007F7D5686BF821884356
:10106000A169C900084368630BE0B8436863F4E70B
:101070004CE0FFF7F9FC801B022847D8686B80071B
:10108000F7D4206A00285ED069680907890F022911
:1010900042D0012636060228286805D0B0432860D1
:1010A000FFF7E2FC044633E0B0432860FFF7DCFCC6
:1010B000074604E0FFF7D8FCC01B022826D82868A2
:1010C0008001F7D4E86AE16A000900010843E86298
:1010D000616AA06A084369683D221204914308438B
:1010E0006860286830432860FFF7BEFC044604E0CF
:1010F000FFF7BAFC001B022808D828688001F7D542
:1011000021E0FFF7B1FC001B022801D90320FEBD3E
:1011100028688001F5D416E00128F8D06868E96AEB
:1011200001221204636A02409A420AD10907E26A64
:10113000090F914205D10F2189040840A16A884214
:1011400001D00120FEBD0020FEBD000000100240C5
:101150000070004088130000094910B5401E884205
:1011600001D9012010BD074C60610321081F01F067
:1011700059FC0020A06107202061002010BD000064
:10118000FFFFFF0000E000E070477047F0B5024647
:101190002032137F012B1ED00125157702235377B0
:1011A00006687468B3687027BC430F68274377608C
:1011B00000680A4CA04205D0094CA04202D0094C5C
:1011C000A04204D180244968A34319438160557724
:1011D00000201077F0BD0220F0BD0000002C01407F
:1011E000000400400040014070B5040005D02546D1
:1011F0002035687F002802D006E0012070BD002065
:101200002877204600F014F802206877211D206816
:1012100000F0D2FF01204034A071A877E877207059
:101220006070A070E070207160716877002070BD00
:1012300010B586B0044614216846FEF7B1FF1A4B7C
:1012400022681A4802219A421BD18369C2141343AF
:10125000836183691340059343690A04134343611F
:101260004069019110400590C80100900020029053
:101270000390049109206946C006FFF723FB06B0DE
:1012800010BD0B4B9A42FAD1C2690A43C261C069D0
:1012900000220840059001211020FFF74DFC10208E
:1012A000FFF73EFCEBE70000002C0140001002407D
:1012B00000040040F8B5054604462035287F002686
:1012C000012817D0012028770220687722689068CB
:1012D0007727FF23B8431B02984390600868502883
:1012E00038D00EDC20284FD006DC00284CD0102847
:1012F0001ED149E00220F8BD302845D0402817D142
:101300003AE060282ED0702819D001221203801AEA
:101310000FD090420CD1CB684A688968206800F0F1
:101320009CFF20688168012292031143816000E0E4
:10133000012601206877002028773046F8BDCB6869
:101340004A688968206800F088FF21688868384307
:101350008860EEE7CA684968206801F0D3F8502138
:10136000206806E0CA684968206801F005F9602134
:10137000206800F07DFFDCE7CA684968206801F05A
:10138000C1F840212068F4E7226801461046F0E7E2
:1013900070B50021134800F006FB134C0028606074
:1013A0001CD004210F4800F0FEFA0646A0606068D9
:1013B000401CFEF77BFF054629460C48FEF738FF28
:1013C0006061701CFEF772FF0949FEF7F4FE2946C2
:1013D000FEF72EFF20610120E06070BD00206061FB
:1013E000206170BD2C000020000000200024744902
:1013F0000000C842F8B5044600202646203600907A
:10140000307F0D4601280ED001203077002A0CD005
:10141000042A19D0082A2AD00C2A4ED00090002085
:1014200030770098F8BD0220F8BDEB6806CD083D86
:10143000206801F079F8206882690C218A43826172
:1014400020688169AA680FE0EB6806CD083D206836
:1014500001F0A5F82068816903229202914381611D
:1014600020688169AA68120211438161D7E788CD9B
:10147000287921688446086AFF2201329043086275
:10148000C8690A6A800880003843F027B843674675
:101490003F073F0E07430520400282430A200340D6
:1014A00018021043CF6108622068C1690C22914381
:1014B000C1612068C1692A682CE02B6820689E46BB
:1014C0006F682B7B016ABC460122120391430162C3
:1014D000C169026A03273F02B94367463F020F43CF
:1014E0000F2109038F431907090C052339435B03B7
:1014F0009A4373460A273B401B031343C1610362AF
:101500002068C269032189028A43C2612068C169D7
:10151000AA6812021143C16181E770B5040005D0C9
:1015200025462035687F002802D006E0012070BDE6
:1015300000202877204600F014F802206877211D4B
:10154000206800F039FE01204034A071A877E877C8
:1015500020706070A070E07020716071687700206A
:1015600070BD704770B503460446002520334030F7
:10157000002908D0042909D008290AD046784279E0
:10158000012E0BD108E09E7F8278F9E7DE7FC278DA
:10159000F6E706780279F3E7012A01D0012070BD51
:1015A0000222002909D004290ED0082912D0427045
:1015B00042710C292ED001252AE09A77827020688A
:1015C000C3681343C3600CE0DA77C2702068C26856
:1015D000042304E0027002712068C26808231A43E1
:1015E000C2600122206800F02BFE0C4A2068012115
:1015F000904205D00A4A904202D00A4A904204D151
:1016000082685207520F062A02D002680A4302601B
:10161000284670BD2068C2681023E0E7002C014016
:10162000000400400040014070B5044600680169B4
:101630000025C9438907002915DBC168C94389070B
:1016400011D4E91E0161012020772068806980079C
:10165000204602D0FFF79CFE04E000F0BFF82046D1
:1016600000F04AF9257720680169C943490717D472
:10167000C168C943490713D40421C9430161022049
:101680002077206880698005800F204602D0FFF710
:101690007FFE04E000F0A2F8204600F02DF9257747
:1016A00020680169C943090716D4C168C9430907FD
:1016B00012D40821C9430161042020772068C06941
:1016C0008007204602D0FFF763FE04E000F086F8B2
:1016D000204600F011F9257720680169C943C90641
:1016E00017D4C168C943C90613D41021C943016185
:1016F000082020772068C0698005800F204602D02E
:10170000FFF746FE04E000F069F8204600F0F4F828
:10171000257720680169C943C90708D1C168C94351
:10172000C90704D1891E0161204600F03BF92068F9
:101730000169C943090609D4C168C943090605D42A
:101740008021C94301612046FFF71EFD2068016921
:10175000C943490609D4C168C943490605D4402193
:10176000C9430161204600F05AF920680169C94364
:10177000890609D4C168C943890605D42021C94313
:1017800001612046FFF701FD70BD000010B586B075
:10179000044614216846FEF703FD0E49206888427E
:1017A00015D10D48426949130A4342614069084016
:1017B00005904020009002200190002002900390AC
:1017C0000120049009206946C006FFF77BF806B0A7
:1017D00010BD000000040040001002407047F8B542
:1017E000064604462036307F00270D4601280ED0DD
:1017F00001203077002A0CD0042A1BD0082A2FD0D1
:101800000C2A3ED00127002030773846F8BD022050
:10181000F8BD206800F034FD20688169082211437A
:1018200081612068826904218A438261206881691C
:101830002A6912E0206800F067FD206882690121B2
:10184000C9020A43826120688169012292029143A0
:101850008161206881692A69120211438161D2E79E
:10186000206800F091FD2068C16908221143C16120
:101870002068C26904218A43C2612068C1692A695B
:1018800012E0206800F0C2FD2068C1690122D20286
:101890001143C1612068C269012189028A43C26182
:1018A0002068C1692A6912021143C161ABE770B5B2
:1018B000040005D025462035687F002802D006E0C8
:1018C000012070BD00202877204600F014F8022087
:1018D0006877211D206800F06FFC01204034A07162
:1018E000A877E87720706070A070E0702071607158
:1018F0006877002070BD70477047000030B504461F
:101900000222203000290AD004290DD02046403080
:1019100008290ED04378012B10D0012030BD837FE1
:10192000012BFAD182770AE0C37F012BF5D1C27770
:1019300005E00378012BF0D1027000E04270012233
:10194000206800F07DFC12492068124B884207D0C5
:10195000984205D0104A904202D0104A904204D1D9
:10196000426C0125ED032A4342642068012288422B
:1019700004D00B49884201D0984204D181684907BC
:10198000490F062902D0016811430160002030BDD3
:10199000002C01400040014000440140004801404B
:1019A00000040040704702460020002908D00429A6
:1019B00009D008290AD00C2901D11068006C7047A1
:1019C0001068406B70471068806B70471068C06B80
:1019D000704770B5044605462034207F01280ED09C
:1019E0000126267702206077284600F045FD014653
:1019F0000020002905D066772077012070BD0220E5
:101A000070BD2968CA6840239A43CA602968CA68B9
:101A10001B029A43CA6066772077002070BD70472A
:101A200070477047F8B502680446D0691168966837
:101A30009C4B05461D402023002D75D0F7079A4D7D
:101A4000FF0FBC460D402F436DD02546C70780359C
:101A5000002F06D0CF0504D5012717622A683A4324
:101A60002A60820708D5F20706D0276802223A6268
:101A70002A6804273A432A60420708D5F20706D0AD
:101A80002668042232622A68022632432A6002074C
:101A90000AD50A461A406646324305D0266808220F
:101AA00032622E6816432E60020508D54A0106D51B
:101AB00001222668D20232622A681A432A602A6802
:101AC000002A39D0800606D5880604D5616E002923
:101AD00001D020468847286821688968490602D4D1
:101AE000282108422DD0204600F014FE2168886885
:101AF000400622D5EFF31080012282F310888B6814
:101B0000402293438B6080F31088206F002814D00C
:101B100066494163206FFEF79FFE00280CD0206FBE
:101B2000416B08E000E012E0850610D58D060ED569
:101B3000616E9DE020468847F8BD2046FFF771FFA3
:101B4000F8BD2046FFF76DFF00202860F8BD256E28
:101B5000012D7DD1C5067BD5CD0679D5102616621F
:101B600022689068254640064035002845DA216FF6
:101B7000086840680004000CE8D02F8B8742E5D944
:101B800068838869202833D0EFF31080012181F326
:101B9000108811683701B943116080F31088EFF3A2
:101BA0001080012181F3108821688A685208520050
:101BB0008A6080F31088EFF31080012181F3108890
:101BC00021688A684027BA438A6080F31088E367F7
:101BD00000202066EFF31080012181F31088216836
:101BE0000A68B2430A6080F31088206FFEF714FE83
:101BF000288B698B401A81B231E0288B698B401A9F
:101C000081B2688B0028A1D000299FD0EFF310800B
:101C1000012585F310881568FF272137BD4315601E
:101C200080F31088EFF31080012282F3108822687D
:101C300095686D086D00956080F31088E36700205B
:101C400020666066EFF31080012282F3108800E0C6
:101C500009E022681368B343136080F310882046BC
:101C6000FFF7DEFEF8BD050606D50D0604D5A16E0C
:101C7000002900D05EE7F8BD4006FCD54806FAD53D
:101C80002046EFF31081012484F310881468402566
:101C9000AC43146081F3108883670021816600F0F3
:101CA00056F9F8BD0F0800002001000401270008C4
:101CB00010B5040003D0A06F002802D007E0012077
:101CC00010BD002174200155204600F027F8242083
:101CD000A06720680168490849000160204600F0BB
:101CE00049FD0128ECD0606A002802D0204600F0AF
:101CF00070FC206841680122D20291434160206853
:101D000081680822914381602068016801221143A3
:101D10000160204600F0C2FC10BD000010B586B086
:101D2000044614216846FEF73BFA134920688842AE
:101D30001FD112488269012189030A4382618269A5
:101D40000A4005924269C9000A434261406908405D
:101D50000590032040020090022001900020029094
:101D6000032003900120049009206946C006FEF775
:101D7000A9FD06B010BD000000380140001002406F
:101D8000FFB50446C06F85B017460E46202870D1B7
:101D9000002E0AD0002F08D0A168C001814207D1CF
:101DA0002069002804D1F00702D0012009B0F0BD5D
:101DB000204660300090007D01285AD00098012113
:101DC00001750020802108512221E1672066FEF77D
:101DD0004BFE2546403502902F836F830120A1687A
:101DE0000003FF22814204D12369002B09D1224A3A
:101DF00007E0002901D0002203E02369002B00D076
:101E00007F22AA8392B20192814202D120690028E6
:101E100008D0374600260099002008750198C0B206
:101E2000039018E00027F6E7089800900022202190
:101E30002046029B00F038FD002801D00320B5E7C2
:101E40002068002F0ED0818C0398014039707F1CD0
:101E5000688B401E6883688B0028E5D12020E067EE
:101E60000020A3E7808C019908403080B61CEFE782
:101E7000FFE702209AE70000FF010000FFB50446DB
:101E8000806F83B017460D4620285ED1002D0AD002
:101E9000002F08D0A168C001814207D12069002825
:101EA00004D1E80702D0012007B0F0BD2046603021
:101EB0000090007D012848D0009801210175002084
:101EC000802108512120A067FEF7CEFD264640362E
:101ED0000190378277820120A1680003814202D1FC
:101EE0002069002805D02F4600250099002008759C
:101EF00011E00027F9E700228021204600F0D4FC01
:101F0000002815D1002F15D02168387808857F1C4E
:101F1000708A401E7082708A019B0028069800908B
:101F2000E9D100224021204600F0BEFC002808D064
:101F30000320B9E728882168C005C00D0885AD1CBD
:101F4000E6E72020A0670020AEE70220ACE770475C
:101F5000FEE7000010B590B0002409940A940B9499
:101F6000142104A80C94FEF71BF90D942F480E942D
:101F70000094019402942C49039401602F21846001
:101F8000416004612A494461C16080218161FFF799
:101F90002BF9002801D072B6FEE70120000309905A
:101FA00009A92248FFF786F9002801D072B6FEE79A
:101FB0001E48FFF7B2FA002801D072B6FEE70420EF
:101FC000049050200590069404A908941748FFF740
:101FD00000FD002801D072B6FEE70D940DA913484C
:101FE0000E94FFF7D3F8002801D072B6FEE7012067
:101FF0000190009402940022694603940B48FFF775
:10200000F9F9002801D072B6FEE702200090019095
:10201000042269460548FFF7EDF9002801D072B6A1
:10202000FEE710B010BD0000002C01402C00002085
:102030000F27000010B58EB000240794089409946F
:102040000A940B941C2168460C94FEF7A9F82148C9
:102050001F4901602F21846041601F490461C160F4
:1020600080218161FFF7C0F8002801D072B6FEE739
:1020700001200003079007A91648FFF71BF9002865
:1020800001D072B6FEE71348FFF711FC002801D01B
:1020900072B6FEE70B940BA90E480C94FFF776F886
:1020A000002801D072B6FEE76020009001940294EF
:1020B0000022694604940748FFF791FB002801D0ED
:1020C00072B6FEE70348FFF761FB0EB010BD0000DB
:1020D0000004004074000020E703000010B50C4825
:1020E0000A490160E1214902416000218160C1602B
:1020F00001618161C1610C22016242614162FFF7AD
:10210000D7FD002801D072B6FEE710BD00380140AF
:10211000BC000020FEE770477047704710B5FEF71F
:10212000A9FC10BD70B594B030216846FEF738F8B0
:10213000002401250E942804139409900F9405207F
:102140000D9410940095C0040C94129402260195ED
:102150000A90119408960B956846FEF739FE002800
:1021600001D072B6FEE707200C900E9401210D9667
:102170000F940CA8FEF758FD002801D072B6FEE7B8
:1021800010A810951294FEF7DBFC002801D072B65F
:10219000FEE714B070BD704710B50248FFF744FA6F
:1021A00010BD00002C00002010B50248FFF73CFADB
:1021B00010BD000074000020F0B502681A4B1B4CE3
:1021C000984201D0A04203D17025AA434D682A430A
:1021D000174D184E184F98420AD0A04208D0174CFD
:1021E000A04205D0A84203D0B04201D0B84205D1E8
:1021F0001446032212029443CA6822438024A24355
:102200004C69224302608A68C2620A68826298420C
:1022100005D0A84203D0B04201D0B84201D109692B
:10222000016301214161F0BD002C01400004004028
:1022300000400140004401400048014000200040AF
:1022400010B5CB06DB0E0121046A99408C43046271
:10225000016A9A401143016210BD30B58468FF25C0
:102260002D021B021343AC430B432343836030BD59
:10227000826870239A430A4307210A4382607047A9
:10228000F0B5026A520852000262056A4368826928
:102290007024A24392080C689200144302229543D2
:1022A0008A68164E2A43144DA84207D0B04205D082
:1022B000134FB84202D0134FB84206D10827BA4391
:1022C000CF681743042297433A46A84207D0B0424A
:1022D00005D00B4DA84202D00A4DA84206D10325D5
:1022E0002D02AB434D691D438B692B4343608461D1
:1022F000496841630262F0BD002C0140004001408A
:10230000004401400048014070B5026A10239A431E
:102310000262056A4268836973242402A3430C683D
:1023200024021C4320239D438B681B012B43124D29
:10233000A84208D11D46CB688026B5431B012B431C
:102340004025AB4308E00D4DA84205D00C4DA842F6
:1023500002D00C4DA84208D10325AD02AA434D6915
:10236000AD0015438A6992002A434260846149683E
:102370008163036270BD0000002C014000400140F9
:10238000004401400048014070B5026AFF23013358
:102390009A430262056A4368C2697024A2439208A4
:1023A0000C68920014430122520295438A6812027B
:1023B0002A43124DA84208D11546CA68C614B5432F
:1023C00012022A430515AA4308E00D4DA84205D084
:1023D0000C4DA84202D00C4DA84208D103252D0374
:1023E000AB434D692D011D438B691B012B4343609A
:1023F000C4614968C163026270BD0000002C0140E5
:1024000000400140004401400048014030B5026AEC
:1024100001231B039A430262046A4268C36973255D
:102420002D02AB430D682D021D4301235B039C432A
:102430008B681B0323430C4CA04208D00B4CA042DA
:1024400005D00B4CA04202D00A4CA04205D1012479
:10245000A403A2434C69A40122434260C5614968B8
:102460000164036230BD0000002C014000400140C7
:10247000004401400048014070B505680024AA6886
:1024800070239A434B681343DB080A68DB001A4346
:10249000AA604A6813071B0F31D11211130000F014
:1024A000B4FA082F2F2F2F0C2228052E0B698A68CB
:1024B000C9680068FFF7D1FE22E00A68052A10D03B
:1024C0000268136A156A6D086D0015620568AA69CD
:1024D0000969F026B24309011143A961006803624A
:1024E0000EE0012070BD0A698968006800F00AF8F2
:1024F00006E00A698968006800F03EF800E00124FF
:10250000204670BD30B5036A046A64086400046242
:102510008469F025AC43120122430A24A3430B43F0
:102520008261036230BD000070B5046A6408640013
:1025300004628469056A0D4EB04205D00C4EB0426B
:1025400002D00C4EB04202D1A408A40000E0012247
:102550001443F02294431A07120E0A2322439D4388
:10256000194029438261016270BD0000002C0140C6
:10257000000400400040014030B5036A1024A3432A
:1025800003628469036A0F252D031203AC432243BF
:10259000A024A343090119438261016230BD70B5D3
:1025A000046A1025AC4304628569046A0326360276
:1025B000B54312022A430F252D031B071B0CAA4308
:1025C0001343A02209019443114021438361016216
:1025D00070BD10B5818CC90707D001684A68012316
:1025E0005B049A43836A1A434A60818C890707D542
:1025F00001684A6801231B049A43C36A1A434A606C
:10260000818C490707D501684A6801239B049A43D6
:10261000036B1A434A60818C090707D501684A6831
:102620000123DB039A43436B1A434A60818CC9063A
:1026300007D50268916801231B039943836B1943F3
:102640009160818C890607D501688A6801235B0344
:102650009A43C36B1A438A60818C490612D503687A
:102660005A6801210905046C8A4322435A60026CAE
:102670008A4207D10268516803235B059943436C82
:1026800019435160818C090607D501684A68012306
:10269000DB04806C9A4302434A6010BDF8B50446DF
:1026A000002680300660FEF7DFF9054620680068E6
:1026B000124F000709D501212B460022490520466B
:1026C000009700F0F1F800280DD12068006840075D
:1026D0000BD501212B46002289052046009700F0EA
:1026E000E3F8002801D00320F8BD2020A067E067B0
:1026F0002666603426750020F8BD0000FFFFFF014C
:1027000010B5406A0022014640314A834A82FFF7F1
:1027100088F910BD10B5EFF31081012282F3108803
:1027200002681368FF242134A343136081F31088E7
:10273000EFF31081012282F31088026893685B082E
:102740005B00936081F31088016E01290BD1EFF3D8
:102750001081012282F31088026813681024A343B9
:10276000136081F310882021C16700210166416652
:1027700010BD000070B5044680682169E269084315
:10278000616900251143226808431168404B1940D4
:102790000143116021684868032212039043E268F4
:1027A00010434860A169206A084321688A680B23A6
:1027B0001B029A4302438A6036492068884210D13E
:1027C0003548006B8007800F0ED0012805D0022805
:1027D00005D003280AD1022109E0042107E00821DD
:1027E00005E02E49884201D1002100E0102101209E
:1027F000E369C0032A4A2B4E834223D1002906D025
:10280000022907D0042907D0082937D108E0FEF7AC
:102810008FFA03E0104603E0FEF79AFA002831D061
:10282000616840004A088018FDF75CFC80B20146F0
:102830001039B14222D81B49491C01400007400F02
:1028400008431DE0002906D0022907D0042907D03B
:10285000082913D108E0FEF76BFA03E0104603E005
:10286000FEF776FA00280DD061684A081018FDF7C7
:1028700039FC80B201461039B14201D9012501E08D
:102880002168C86000206066A066284670BD000010
:10289000F369FFFF0038014000100240004400408F
:1028A00000127A00EFFF0000FFB581B00546174621
:1028B000044660350A9E55E0701C53D0FEF7D4F8EC
:1028C0000499401AB04230D8002E2ED020680168FA
:1028D000490747D5C069C043000543D4012021689A
:1028E000C0020862EFF31080012181F31088216893
:1028F0000B68FF22A13293430B6080F31088EFF343
:102900001080012181F3108821688A6852085200E2
:102910008A6080F310882020A067E0678034206000
:1029200000202875032005B0F0BDEFF310800121D1
:1029300081F3108821680B68FF22A13293430B605A
:1029400080F31088EFF31080012181F31088216853
:102950008A68520852008A6080F310882020A0679D
:10296000E067DDE72068C1690298884304D0002051
:10297000B842A1D00020D6E70120F9E710B50248FF
:10298000FFF750F810BD0000BC0000200FB410B5D8
:1029900003A9044B044A029800F030F910BC08BCAB
:1029A00004B0184735330008280000202021020C0D
:1029B00001D010211046020A01D010460839020940
:1029C00001D01046091F820801D01046891E420816
:1029D00001D0881E7047081A7047F8B5040C8BB2F6
:1029E000264682B25E430D0C1046370C584336041F
:1029F00080190021794116466E43370C3604801940
:102A0000794126466E438919F8BD30B47446641E78
:102A10002578641CAB4200D21D46635D5B00E31861
:102A200030BC18478307FF22DB0E9A408907090E46
:102A30009940002808DB830809489B001B18186888
:102A400090430843186070470007000F0838830858
:102A500004489B001B18D86990430843D86170470D
:102A600000E400E000ED00E002E008C8121F08C129
:102A7000002AFAD170477047002001E001C1121FFF
:102A8000002AFBD170470000F0B51FB486B009984A
:102A9000089A030D0021024314D05148514A1818D6
:102AA000504305141198012810981AD0281A401C78
:102AB00000264D4F4D49009601910490002812DAEE
:102AC000444211E01198012449A3012801D1109832
:102AD000C1430698119A84600360C26041600BB0E4
:102AE000F0BD4042E4E70446210500203F4A001CB7
:102AF00051410391029012E0E00707D032463B4675
:102B000001990098FDF7F0FC0191009032463B4698
:102B100010461946FDF7E8FC06460F466410002CE7
:102B2000EAD10498039B0028029A0999089806DACA
:102B3000FDF7DAFC019B009AFDF7D6FC05E0FDF7F6
:102B40003BFD019B009AFDF737FD04460E4600222F
:102B5000284BFDF7C9FD03D80020C043014607E01C
:102B60000022254B20463146FDF70CFCFDF79CFD6D
:102B7000102409E0002C0ADB0A220023FDF7C8FA22
:102B8000079B30321A55641E02460A43F2D11122C5
:102B9000641C079B121B1C19119B012B03D00123E2
:102BA00008430ED10AE0084304D011201090002001
:102BB000119077E71098151A6D1E0BE0109882425D
:102BC00002DD00236D1C03E0824201DA00236D1E4A
:102BD000002BEED0069811998260C16030C07EE76C
:102BE00001FCFFFF104D0000000014400000F03F0A
:102BF000300000000000F0430000E03FFFB597B058
:102C00000646002518E2252877D100242746FD49ED
:102C1000049400E00443761C32780120203A90406E
:102C20000842F7D130782A280ED0022230780146A7
:102C30003039092916D804990A23594330394018E4
:102C40001443761C0490F1E7189802C80491189078
:102C5000002904DA01204003044348420490022082
:102C60000443761C30782E2814D104200443707855
:102C7000761C2A2809D11898761C80C8189009E07B
:102C80000A214F43303FC719761C3078014630394E
:102C90000929F5D930786C2810D006DC4C281AD0D8
:102CA00068280ED06A2817D104E0742813D07A2837
:102CB00012D110E00120400504430CE00121090578
:102CC00001E0032109050C437178814203D1012001
:102CD00000052418761C761C3078119066280BD0DD
:102CE00013DC58287DD009DC00287BD04528F6D09D
:102CF0004628F4D047281AD1A5E118E0632835D03A
:102D0000642870D0652812D19DE170286CD008DC51
:102D10006728F1D069287BD06E280DD06F2806D1A6
:102D2000BAE073282ED0752871D0782859D01A9A15
:102D3000199990476D1C7EE16002400F022809D06E
:102D400003280DD00428189801680DD00D60001DCF
:102D5000189070E11898EA1701680D604A60F6E76C
:102D6000189801680D80F2E70D70F0E718986A4630
:102D700001781172001D18900020507202A8009076
:102D8000012005E0189802C8189000200091C04367
:102D900061070DD5002101E00199491C0191B9425B
:102DA00012DA8142F8DB009A515C0029F4D10BE081
:102DB000002101E00199491C01918142FADB019A4D
:102DC0000099895C0029F5D1019904981A9B471A4A
:102DD00021463846199A00F097FA0199401945188A
:102DE0000BE04FE02CE113E04EE0009800990078F2
:102DF000491C00911A9A199990470198401E019018
:102E0000401CF2D1214638461A9B199A10E137E04E
:102E10000A200021009001916002410F022907D091
:102E2000189A01CA1892C2179446032908D00AE0DA
:102E30001898C01DC108C90005C91891944607E03B
:102E400000B2C2179446042902D140B2C1178C4681
:102E500000226146944506DA0A460021404291412B
:102E60008C462D2102E0210504D52B216A461173E1
:102E7000012103E0E10701D02021F7E7029155E0AD
:102E80000A200AE0102008E0102000900021042011
:102E900004430191082703E00820002101910090DC
:102EA0006002410F022907D0189A01CA1892002225
:102EB0009446032908D008E01898C01DC108C9002D
:102EC00005C91891944603E080B2042900D1C0B22C
:102ED00000210291210729D51199702906D0009A65
:102EE0001021019B4A401A4305D00EE040216A465A
:102EF0001173012108E06146014306D030216A4682
:102F000011731199517302210291009A0821019BBA
:102F10004A401A430AD16146014301D1610705D5F0
:102F200030216A46117301217F1E0291119958299F
:102F300004D035A10E910DA90D910DE037A1F9E74F
:102F40006146019B009AFDF7E3F80E9B8C469B5C63
:102F50000D9A521E0D92137061460143F0D10D98E7
:102F600005A9081A20300190600703D5012000044C
:102F7000844300E001270198874201DD381A00E010
:102F80000020019900904118029809180498401AED
:102F90000490E00306D421461A9B199A049800F085
:102FA000B3F94519002706E003A81A9AC05D1999DC
:102FB00090476D1C7F1C02988742F5DBE0030CD51F
:102FC00021461A9B199A049800F09EF9451904E0CD
:102FD0001A9A3020199990476D1C0099481E00904C
:102FE0000029F5DC08E00D980D990078491C0D9139
:102FF0001A9A199990476D1C0199481E0190002951
:10300000F1DC63E1092801003031323334353637E1
:103010003839616263646566000000003031323324
:1030200034353637383941424344454600000000C4
:1030300000F05AF94519761C3078002800D0E2E5F6
:1030400028461BB0F0BD600700D406271898C01DA5
:10305000C108C90048680A680831C30FDB07189126
:10306000190001D09CA108E0210501D59BA104E035
:10307000E10701D09AA100E09AA1430011985B08F2
:10308000109165280CD006DC452809D046281DD0B3
:10309000472841D141E0662818D067283CD13CE060
:1030A0000021112F01DB112000E0781C019100901C
:1030B00008A911A8FFF7E8FC139905910021119ABE
:1030C00015927F1C12980197009150E00120C007D3
:1030D00003900120019008A9009711A8FFF7D4FCE4
:1030E000139A149905920022119B0092129815933D
:1030F000059A0192002901D0104602E0791C40187F
:103100000190381A01D5019804E04042401E009019
:10311000781C0190C01B029043E0012F00DA0127C8
:103120000021112F01DD112000E0384601910090AF
:1031300008A911A8FFF7A8FC13990591119A00217D
:10314000129815920091019721070CD40599B94264
:1031500001DB019900E00191012904DD159A491E66
:10316000515C302906D0B84201DA011D05DA01218F
:10317000029115E00199491EEDE7002805DC009950
:10318000411800910199091A03E0019A411C9142EA
:1031900000DD01910099401A401C02900120C007F7
:1031A0000390200706D402990198814202DB002097
:1031B000C043029000206946C87707AF01210398F9
:1031C0000337C907884224D0022011902B20129087
:1031D000039800280CDA404203902D20129007E05B
:1031E0000A210398FCF77EFF30317F1E039039706F
:1031F0001199481E11900029F2DC03980028EFD1A4
:10320000791E129808703078202108404530BF1E82
:10321000387006A8C01BC01D0390109800780028C5
:1032200000D00120019941180298C017091803988D
:1032300009180498401A401E0490E00306D4214661
:103240001A9B199A049800F05FF8451910980078B5
:10325000002803D01A9A199990476D1CE00324D5D1
:1032600021461A9B199A049800F04EF845191CE063
:103270000098002807DB00990598884203DD15981F
:10328000405C199901E0199930201A9A90470098EA
:103290006D1C401C00900298401E0290002804D132
:1032A0001A9A2E20199990476D1C0199481E019079
:1032B0000029DDDC05E038781A9A7F1C19999047BF
:1032C0006D1C0399481E03900029F4DC21461A9BCB
:1032D000199A0498ACE600002D0000002B000000B5
:1032E0002000000000000000F8B5044600251E463E
:1032F0001746880404D405E039462020B0476D1CE9
:10330000641EF9D52846F8BDFFB50446002581B0F6
:103310001E46C80301D5302700E02027880404D5C5
:1033200005E038460399B0476D1C641EF9D5284660
:1033300005B0F0BD13B57D23DB00012269460248CC
:10334000FEF79CFD00981CBDBC0000201CB5FDF7DD
:1033500099FBFEF7E7FE31484269012189050A43DE
:10336000426142690A400092426949110A4342613E
:10337000406908400090FEF7B1FEFEF7EBFDFEF756
:1033800059FE002211461B20FDF7D6FB1B20FDF73E
:10339000C7FB002211460E20FDF7CEFB0E20FDF7E5
:1033A000BFFB00211E48FEF7A9FA1D49FF2009684E
:1033B000F53048631A4800214838FEF7D3F818481A
:1033C00004214838FEF7CEF816A0FFF7DFFA194CB3
:1033D000002713480023012216494830FEF7D0FC8D
:1033E000002803D1134914A0FFF7D0FAE0680128A0
:1033F0000FD12069FCF761FF05460E466069FCF7B6
:103400005CFF02460B460DA001960095FFF7BEFA41
:10341000E7607D20C000FDF743FADAE700100240C4
:103420007400002048414C20496E697420454E4488
:103430000D0A000000000020257300000D0AC6B52B
:10344000C2CA3D252E3266485A2CD5BCBFD5B1C85C
:103450003D252E326625250D0A00000000000000E3
:103460000000000001020304060708090000000034
:103470000102030494340008000000202C00000026
:10348000682A0008C03400082C0000201405000041
:10349000782A000800000000000000000000000082
:1034A000000000000000000000000000010000001B
:1034B000040000000000000000127A00000000007C
:04000005080000B53A
:00000001FF
